{
  "contractName": "Funding",
  "abi": [
    {
      "inputs": [],
      "name": "getAllProjects",
      "outputs": [
        {
          "components": [
            {
              "internalType": "uint256",
              "name": "projectId",
              "type": "uint256"
            },
            {
              "internalType": "address",
              "name": "projectOwner",
              "type": "address"
            },
            {
              "internalType": "uint256",
              "name": "fund",
              "type": "uint256"
            },
            {
              "internalType": "string",
              "name": "title",
              "type": "string"
            },
            {
              "internalType": "string",
              "name": "pitch",
              "type": "string"
            },
            {
              "internalType": "string",
              "name": "githubLink",
              "type": "string"
            },
            {
              "internalType": "string",
              "name": "category",
              "type": "string"
            },
            {
              "internalType": "uint256",
              "name": "contributors",
              "type": "uint256"
            },
            {
              "internalType": "uint256",
              "name": "matchingContributors",
              "type": "uint256"
            },
            {
              "internalType": "uint256",
              "name": "rootSum",
              "type": "uint256"
            },
            {
              "internalType": "uint256",
              "name": "matchingSum",
              "type": "uint256"
            },
            {
              "internalType": "uint256",
              "name": "matchingShare",
              "type": "uint256"
            },
            {
              "internalType": "uint256",
              "name": "lifetimeMatching",
              "type": "uint256"
            },
            {
              "internalType": "uint256",
              "name": "unpaid",
              "type": "uint256"
            }
          ],
          "internalType": "struct GetProject.Project[]",
          "name": "",
          "type": "tuple[]"
        }
      ],
      "stateMutability": "view",
      "type": "function"
    },
    {
      "inputs": [],
      "name": "isMatchingRound",
      "outputs": [
        {
          "internalType": "bool",
          "name": "",
          "type": "bool"
        }
      ],
      "stateMutability": "view",
      "type": "function"
    },
    {
      "inputs": [
        {
          "internalType": "string",
          "name": "_title",
          "type": "string"
        },
        {
          "internalType": "string",
          "name": "_pitch",
          "type": "string"
        },
        {
          "internalType": "string",
          "name": "_githubLink",
          "type": "string"
        },
        {
          "internalType": "string",
          "name": "_category",
          "type": "string"
        }
      ],
      "name": "listProject",
      "outputs": [],
      "stateMutability": "nonpayable",
      "type": "function"
    },
    {
      "inputs": [],
      "name": "managerAdd",
      "outputs": [
        {
          "internalType": "address",
          "name": "",
          "type": "address"
        }
      ],
      "stateMutability": "view",
      "type": "function"
    },
    {
      "inputs": [],
      "name": "matchingFund",
      "outputs": [
        {
          "internalType": "uint256",
          "name": "",
          "type": "uint256"
        }
      ],
      "stateMutability": "view",
      "type": "function"
    },
    {
      "inputs": [],
      "name": "owner",
      "outputs": [
        {
          "internalType": "address",
          "name": "",
          "type": "address"
        }
      ],
      "stateMutability": "view",
      "type": "function"
    },
    {
      "inputs": [
        {
          "internalType": "uint256",
          "name": "",
          "type": "uint256"
        }
      ],
      "name": "projectIdToProject",
      "outputs": [
        {
          "internalType": "uint256",
          "name": "projectId",
          "type": "uint256"
        },
        {
          "internalType": "address",
          "name": "projectOwner",
          "type": "address"
        },
        {
          "internalType": "uint256",
          "name": "fund",
          "type": "uint256"
        },
        {
          "internalType": "string",
          "name": "title",
          "type": "string"
        },
        {
          "internalType": "string",
          "name": "pitch",
          "type": "string"
        },
        {
          "internalType": "string",
          "name": "githubLink",
          "type": "string"
        },
        {
          "internalType": "string",
          "name": "category",
          "type": "string"
        },
        {
          "internalType": "uint256",
          "name": "contributors",
          "type": "uint256"
        },
        {
          "internalType": "uint256",
          "name": "matchingContributors",
          "type": "uint256"
        },
        {
          "internalType": "uint256",
          "name": "rootSum",
          "type": "uint256"
        },
        {
          "internalType": "uint256",
          "name": "matchingSum",
          "type": "uint256"
        },
        {
          "internalType": "uint256",
          "name": "matchingShare",
          "type": "uint256"
        },
        {
          "internalType": "uint256",
          "name": "lifetimeMatching",
          "type": "uint256"
        },
        {
          "internalType": "uint256",
          "name": "unpaid",
          "type": "uint256"
        }
      ],
      "stateMutability": "view",
      "type": "function"
    },
    {
      "inputs": [
        {
          "internalType": "uint256",
          "name": "",
          "type": "uint256"
        }
      ],
      "name": "projects",
      "outputs": [
        {
          "internalType": "uint256",
          "name": "projectId",
          "type": "uint256"
        },
        {
          "internalType": "address",
          "name": "projectOwner",
          "type": "address"
        },
        {
          "internalType": "uint256",
          "name": "fund",
          "type": "uint256"
        },
        {
          "internalType": "string",
          "name": "title",
          "type": "string"
        },
        {
          "internalType": "string",
          "name": "pitch",
          "type": "string"
        },
        {
          "internalType": "string",
          "name": "githubLink",
          "type": "string"
        },
        {
          "internalType": "string",
          "name": "category",
          "type": "string"
        },
        {
          "internalType": "uint256",
          "name": "contributors",
          "type": "uint256"
        },
        {
          "internalType": "uint256",
          "name": "matchingContributors",
          "type": "uint256"
        },
        {
          "internalType": "uint256",
          "name": "rootSum",
          "type": "uint256"
        },
        {
          "internalType": "uint256",
          "name": "matchingSum",
          "type": "uint256"
        },
        {
          "internalType": "uint256",
          "name": "matchingShare",
          "type": "uint256"
        },
        {
          "internalType": "uint256",
          "name": "lifetimeMatching",
          "type": "uint256"
        },
        {
          "internalType": "uint256",
          "name": "unpaid",
          "type": "uint256"
        }
      ],
      "stateMutability": "view",
      "type": "function"
    },
    {
      "inputs": [
        {
          "internalType": "address",
          "name": "",
          "type": "address"
        }
      ],
      "name": "sponsorToDonation",
      "outputs": [
        {
          "internalType": "uint256",
          "name": "",
          "type": "uint256"
        }
      ],
      "stateMutability": "view",
      "type": "function"
    },
    {
      "inputs": [
        {
          "internalType": "uint256",
          "name": "",
          "type": "uint256"
        }
      ],
      "name": "sponsors",
      "outputs": [
        {
          "internalType": "address",
          "name": "",
          "type": "address"
        }
      ],
      "stateMutability": "view",
      "type": "function"
    },
    {
      "inputs": [
        {
          "internalType": "uint256",
          "name": "_projectId",
          "type": "uint256"
        }
      ],
      "name": "contribute",
      "outputs": [],
      "stateMutability": "payable",
      "type": "function"
    },
    {
      "inputs": [],
      "name": "donateToMatchingFund",
      "outputs": [],
      "stateMutability": "payable",
      "type": "function"
    },
    {
      "inputs": [
        {
          "internalType": "uint256",
          "name": "x",
          "type": "uint256"
        }
      ],
      "name": "sqrt",
      "outputs": [
        {
          "internalType": "uint256",
          "name": "y",
          "type": "uint256"
        }
      ],
      "stateMutability": "pure",
      "type": "function"
    },
    {
      "inputs": [],
      "name": "clrMatching",
      "outputs": [],
      "stateMutability": "nonpayable",
      "type": "function"
    },
    {
      "inputs": [],
      "name": "getAllSponsors",
      "outputs": [
        {
          "internalType": "address[]",
          "name": "",
          "type": "address[]"
        }
      ],
      "stateMutability": "view",
      "type": "function"
    },
    {
      "inputs": [
        {
          "internalType": "uint256",
          "name": "_id",
          "type": "uint256"
        }
      ],
      "name": "sendMatchingShares",
      "outputs": [],
      "stateMutability": "nonpayable",
      "type": "function"
    },
    {
      "inputs": [],
      "name": "getBalance",
      "outputs": [
        {
          "internalType": "uint256",
          "name": "",
          "type": "uint256"
        }
      ],
      "stateMutability": "view",
      "type": "function"
    },
    {
      "inputs": [
        {
          "internalType": "uint256",
          "name": "_projectId",
          "type": "uint256"
        }
      ],
      "name": "resetMatching",
      "outputs": [],
      "stateMutability": "nonpayable",
      "type": "function"
    }
  ],
  "bytecode": "0x6080604052600080546001600160a01b0319908116331782556003919091556004805460ff1916905560078054909116739e0fb6da4122e6df03bf928fcf97f2bf0233322517905534801561005357600080fd5b506117a0806100636000396000f3fe6080604052600436106101095760003560e01c8063869170c3116100955780639b5f8abb116100645780639b5f8abb146102bd5780639c036608146102df578063c1cbbca714610309578063d19b17971461031c578063f5b24f681461034957600080fd5b8063869170c31461025557806387a09088146102755780638da5cb5b1461027d57806393066b4c1461029d57600080fd5b806323e38e46116100dc57806323e38e46146101a557806351b16c77146101bb578063581e9ead146101db578063677342ce1461021357806380d038291461023357600080fd5b80630f9289791461010e578063107046bd1461013057806312065fe01461017357806314eadcb814610190575b600080fd5b34801561011a57600080fd5b5061012e610129366004611322565b610369565b005b34801561013c57600080fd5b5061015061014b3660046113cf565b610562565b60405161016a9e9d9c9b9a99989796959493929190611435565b60405180910390f35b34801561017f57600080fd5b50475b60405190815260200161016a565b34801561019c57600080fd5b5061012e610808565b3480156101b157600080fd5b5061018260035481565b3480156101c757600080fd5b506101506101d63660046113cf565b610a2a565b3480156101e757600080fd5b506007546101fb906001600160a01b031681565b6040516001600160a01b03909116815260200161016a565b34801561021f57600080fd5b5061018261022e3660046113cf565b610a63565b34801561023f57600080fd5b50610248610abc565b60405161016a91906114e2565b34801561026157600080fd5b5061012e6102703660046113cf565b610dd5565b61012e610e60565b34801561028957600080fd5b506000546101fb906001600160a01b031681565b3480156102a957600080fd5b506101fb6102b83660046113cf565b610f29565b3480156102c957600080fd5b506102d2610f53565b60405161016a9190611618565b3480156102eb57600080fd5b506004546102f99060ff1681565b604051901515815260200161016a565b61012e6103173660046113cf565b610fb5565b34801561032857600080fd5b50610182610337366004611665565b60056020526000908152604090205481565b34801561035557600080fd5b5061012e6103643660046113cf565b61113b565b60018054604080516101c0810182528281523360208083019182526000938301848152606084018b8152608085018b905260a085018a905260c0850189905260e08501869052610100850186905261012085018690526101408501869052610160850186905261018085018690526101a0850186905286880188559690945282517fb10e2d527612073b26eecdfd717e6a320cf44b4afac2b0732d9fcbe2b7fa0cf6600e870290810191825592517fb10e2d527612073b26eecdfd717e6a320cf44b4afac2b0732d9fcbe2b7fa0cf7840180546001600160a01b0319166001600160a01b0390921691909117905593517fb10e2d527612073b26eecdfd717e6a320cf44b4afac2b0732d9fcbe2b7fa0cf883015594518051949592946104b8937fb10e2d527612073b26eecdfd717e6a320cf44b4afac2b0732d9fcbe2b7fa0cf99093019291909101906111e6565b50608082015180516104d49160048401916020909101906111e6565b5060a082015180516104f09160058401916020909101906111e6565b5060c0820151805161050c9160068401916020909101906111e6565b5060e082015181600701556101008201518160080155610120820151816009015561014082015181600a015561016082015181600b015561018082015181600c01556101a082015181600d015550505050505050565b6001818154811061057257600080fd5b60009182526020909120600e909102018054600182015460028301546003840180549395506001600160a01b039092169390929091906105b190611695565b80601f01602080910402602001604051908101604052809291908181526020018280546105dd90611695565b801561062a5780601f106105ff5761010080835404028352916020019161062a565b820191906000526020600020905b81548152906001019060200180831161060d57829003601f168201915b50505050509080600401805461063f90611695565b80601f016020809104026020016040519081016040528092919081815260200182805461066b90611695565b80156106b85780601f1061068d576101008083540402835291602001916106b8565b820191906000526020600020905b81548152906001019060200180831161069b57829003601f168201915b5050505050908060050180546106cd90611695565b80601f01602080910402602001604051908101604052809291908181526020018280546106f990611695565b80156107465780601f1061071b57610100808354040283529160200191610746565b820191906000526020600020905b81548152906001019060200180831161072957829003601f168201915b50505050509080600601805461075b90611695565b80601f016020809104026020016040519081016040528092919081815260200182805461078790611695565b80156107d45780601f106107a9576101008083540402835291602001916107d4565b820191906000526020600020905b8154815290600101906020018083116107b757829003601f168201915b50505050509080600701549080600801549080600901549080600a01549080600b01549080600c01549080600d015490508e565b6000805b6001548110156108d65760018181548110610829576108296116ca565b90600052602060002090600e0201600901546001828154811061084e5761084e6116ca565b90600052602060002090600e02016009015461086a91906116f6565b6001828154811061087d5761087d6116ca565b90600052602060002090600e0201600a0181905550600181815481106108a5576108a56116ca565b90600052602060002090600e0201600a0154826108c29190611715565b9150806108ce8161172d565b91505061080c565b5060005b600154811015610a175781600354600183815481106108fb576108fb6116ca565b90600052602060002090600e0201600a015461091791906116f6565b6109219190611748565b60018281548110610934576109346116ca565b90600052602060002090600e0201600b01819055506001818154811061095c5761095c6116ca565b90600052602060002090600e0201600b015460018281548110610981576109816116ca565b90600052602060002090600e0201600d0160008282546109a19190611715565b909155505060018054829081106109ba576109ba6116ca565b90600052602060002090600e0201600b0154600182815481106109df576109df6116ca565b90600052602060002090600e0201600c0160008282546109ff9190611715565b90915550819050610a0f8161172d565b9150506108da565b505060006003556004805460ff19169055565b6002602081905260009182526040909120805460018201549282015460038301805492946001600160a01b03169391926105b190611695565b6000806002610a73846001611715565b610a7d9190611748565b90508291505b81811015610ab657905080600281610a9b8186611748565b610aa59190611715565b610aaf9190611748565b9050610a83565b50919050565b60606001805480602002602001604051908101604052809291908181526020016000905b82821015610dcc576000848152602090819020604080516101c081018252600e86029092018054835260018101546001600160a01b031693830193909352600283015490820152600382018054919291606084019190610b3f90611695565b80601f0160208091040260200160405190810160405280929190818152602001828054610b6b90611695565b8015610bb85780601f10610b8d57610100808354040283529160200191610bb8565b820191906000526020600020905b815481529060010190602001808311610b9b57829003601f168201915b50505050508152602001600482018054610bd190611695565b80601f0160208091040260200160405190810160405280929190818152602001828054610bfd90611695565b8015610c4a5780601f10610c1f57610100808354040283529160200191610c4a565b820191906000526020600020905b815481529060010190602001808311610c2d57829003601f168201915b50505050508152602001600582018054610c6390611695565b80601f0160208091040260200160405190810160405280929190818152602001828054610c8f90611695565b8015610cdc5780601f10610cb157610100808354040283529160200191610cdc565b820191906000526020600020905b815481529060010190602001808311610cbf57829003601f168201915b50505050508152602001600682018054610cf590611695565b80601f0160208091040260200160405190810160405280929190818152602001828054610d2190611695565b8015610d6e5780601f10610d4357610100808354040283529160200191610d6e565b820191906000526020600020905b815481529060010190602001808311610d5157829003601f168201915b50505050508152602001600782015481526020016008820154815260200160098201548152602001600a8201548152602001600b8201548152602001600c8201548152602001600d8201548152505081526020019060010190610ae0565b50505050905090565b60018181548110610de857610de86116ca565b600091825260209091206001600e9092020181015481546001600160a01b03909116916108fc9184908110610e1f57610e1f6116ca565b90600052602060002090600e0201600d01549081150290604051600060405180830381858888f19350505050158015610e5c573d6000803e3d6000fd5b5050565b3460036000828254610e729190611715565b90915550503360009081526005602052604090205415610eb6573360009081526005602052604081208054349290610eab908490611715565b90915550610f089050565b3360008181526005602052604081203490556006805460018101825591527ff652222313e28459528d920b65115c16c04f3efc82aaedc97be59f3f377c0d3f0180546001600160a01b03191690911790555b67d02ab486cedc000060035410610f27576004805460ff191660011790555b565b60068181548110610f3957600080fd5b6000918252602090912001546001600160a01b0316905081565b60606006805480602002602001604051908101604052809291908181526020018280548015610fab57602002820191906000526020600020905b81546001600160a01b03168152600190910190602001808311610f8d575b5050505050905090565b60018181548110610fc857610fc86116ca565b60009182526020909120600e90910201600101546001600160a01b0316331415610ff157600080fd5b3460018281548110611005576110056116ca565b90600052602060002090600e020160020160008282546110259190611715565b925050819055503460018281548110611040576110406116ca565b90600052602060002090600e0201600d0160008282546110609190611715565b90915550506001805482908110611079576110796116ca565b6000918252602082206007600e90920201018054916110978361172d565b909155505060045460ff161561113857600181815481106110ba576110ba6116ca565b6000918252602082206008600e90920201018054916110d88361172d565b909155506000905060646110f161022e346127106116f6565b6110fb9190611748565b90508060018381548110611111576111116116ca565b90600052602060002090600e020160090160008282546111319190611715565b9091555050505b50565b600060018281548110611150576111506116ca565b90600052602060002090600e02016009018190555060006001828154811061117a5761117a6116ca565b90600052602060002090600e0201600b01819055506000600182815481106111a4576111a46116ca565b90600052602060002090600e0201600a01819055506000600182815481106111ce576111ce6116ca565b90600052602060002090600e0201600d018190555050565b8280546111f290611695565b90600052602060002090601f016020900481019282611214576000855561125a565b82601f1061122d57805160ff191683800117855561125a565b8280016001018555821561125a579182015b8281111561125a57825182559160200191906001019061123f565b5061126692915061126a565b5090565b5b80821115611266576000815560010161126b565b634e487b7160e01b600052604160045260246000fd5b600082601f8301126112a657600080fd5b813567ffffffffffffffff808211156112c1576112c161127f565b604051601f8301601f19908116603f011681019082821181831017156112e9576112e961127f565b8160405283815286602085880101111561130257600080fd5b836020870160208301376000602085830101528094505050505092915050565b6000806000806080858703121561133857600080fd5b843567ffffffffffffffff8082111561135057600080fd5b61135c88838901611295565b9550602087013591508082111561137257600080fd5b61137e88838901611295565b9450604087013591508082111561139457600080fd5b6113a088838901611295565b935060608701359150808211156113b657600080fd5b506113c387828801611295565b91505092959194509250565b6000602082840312156113e157600080fd5b5035919050565b6000815180845260005b8181101561140e576020818501810151868301820152016113f2565b81811115611420576000602083870101525b50601f01601f19169290920160200192915050565b8e81526001600160a01b038e1660208201528c60408201526101c0606082015260006114656101c083018e6113e8565b8281036080840152611477818e6113e8565b905082810360a084015261148b818d6113e8565b905082810360c084015261149f818c6113e8565b60e084019a909a5250506101008101969096526101208601949094526101408501929092526101608401526101808301526101a090910152979650505050505050565b60006020808301818452808551808352604092508286019150828160051b87010184880160005b8381101561160a57888303603f19018552815180518452878101516001600160a01b038116898601526101c0905087820151888601526060808301518282880152611556838801826113e8565b925050506080808301518683038288015261157183826113e8565b9250505060a0808301518683038288015261158c83826113e8565b9250505060c080830151868303828801526115a783826113e8565b60e08581015190890152610100808601519089015261012080860151908901526101408086015190890152610160808601519089015261018080860151908901526101a09485015194909701939093525050509386019390860190600101611509565b509098975050505050505050565b6020808252825182820181905260009190848201906040850190845b818110156116595783516001600160a01b031683529284019291840191600101611634565b50909695505050505050565b60006020828403121561167757600080fd5b81356001600160a01b038116811461168e57600080fd5b9392505050565b600181811c908216806116a957607f821691505b60208210811415610ab657634e487b7160e01b600052602260045260246000fd5b634e487b7160e01b600052603260045260246000fd5b634e487b7160e01b600052601160045260246000fd5b6000816000190483118215151615611710576117106116e0565b500290565b60008219821115611728576117286116e0565b500190565b6000600019821415611741576117416116e0565b5060010190565b60008261176557634e487b7160e01b600052601260045260246000fd5b50049056fea2646970667358221220e681f6ac76899a7f1c77d899d87addf79bc2819905e1bac9f46c9a7a3f1865ad64736f6c63430008090033",
  "immutableReferences": {},
  "source": "// SPDX-License-Identifier: MIT\npragma solidity >=0.4.22 <0.9.0;\npragma experimental ABIEncoderV2;\n\nimport \"./GetProject.sol\";\n\ncontract Funding is GetProject {\n    uint256 public matchingFund = 0;\n    bool public isMatchingRound = false;\n    mapping(address => uint256) public sponsorToDonation;\n    address[] public sponsors;\n    address public managerAdd = 0x9e0FB6dA4122e6dF03BF928FCf97F2Bf02333225;\n\n    function contribute(uint256 _projectId) public payable {\n        require(msg.sender != projects[_projectId].projectOwner);\n\n        projects[_projectId].fund += msg.value;\n        projects[_projectId].unpaid += msg.value;\n        projects[_projectId].contributors++;\n\n        if (isMatchingRound) {\n            projects[_projectId].matchingContributors++;\n            uint256 sq = (sqrt(msg.value * 10000)) / 100;\n            projects[_projectId].rootSum += sq;\n        }\n    }\n\n    function donateToMatchingFund() public payable {\n        matchingFund += msg.value;\n        if (sponsorToDonation[msg.sender] != 0) {\n            sponsorToDonation[msg.sender] += msg.value;\n        } else {\n            sponsorToDonation[msg.sender] = msg.value;\n            sponsors.push(msg.sender);\n        }\n\n        if (matchingFund >= 15000000000000000000) {\n            isMatchingRound = true;\n        }\n    }\n\n    function sqrt(uint256 x) public pure returns (uint256 y) {\n        uint256 z = (x + 1) / 2;\n        y = x;\n        while (z < y) {\n            y = z;\n            z = (x / z + z) / 2;\n        }\n\n        return y;\n    }\n\n    function clrMatching() public {\n        uint256 totalMatchingSum;\n        for (uint256 i = 0; i < projects.length; i++) {\n            projects[i].matchingSum = projects[i].rootSum * projects[i].rootSum;\n            totalMatchingSum = totalMatchingSum + projects[i].matchingSum;\n        }\n\n        for (uint256 j = 0; j < projects.length; j++) {\n            projects[j].matchingShare =\n                (projects[j].matchingSum * matchingFund) /\n                totalMatchingSum;\n            projects[j].unpaid += projects[j].matchingShare;\n            projects[j].lifetimeMatching += projects[j].matchingShare;\n        }\n\n        matchingFund = 0;\n        isMatchingRound = false;\n    }\n\n    function getAllSponsors() public view returns (address[] memory) {\n        return sponsors;\n    }\n\n    function sendMatchingShares(uint256 _id) public {\n        payable(projects[_id].projectOwner).transfer(projects[_id].unpaid);\n    }\n\n    function getBalance() public view returns (uint256) {\n        return address(this).balance;\n    }\n\n    function resetMatching(uint256 _projectId) public {\n        projects[_projectId].rootSum = 0;\n        projects[_projectId].matchingShare = 0;\n        projects[_projectId].matchingSum = 0;\n        projects[_projectId].unpaid = 0;\n    }\n}\n",
  "sourcePath": "/Users/apple/Desktop/bhvgvhvghv/contracts/Funding.sol",
  "compiler": {
    "name": "solc",
    "version": "0.8.9+commit.e5eed63a.Emscripten.clang"
  },
  "schemaVersion": "3.4.7",
  "updatedAt": "2022-05-02T04:40:35.755Z",
  "devdoc": {
    "kind": "dev",
    "methods": {},
    "version": 1
  },
  "userdoc": {
    "kind": "user",
    "methods": {},
    "version": 1
  }
}