{
  "contractName": "GetProject",
  "abi": [
    {
      "inputs": [],
      "name": "owner",
      "outputs": [
        {
          "internalType": "address",
          "name": "",
          "type": "address"
        }
      ],
      "stateMutability": "view",
      "type": "function"
    },
    {
      "inputs": [
        {
          "internalType": "uint256",
          "name": "",
          "type": "uint256"
        }
      ],
      "name": "projectIdToProject",
      "outputs": [
        {
          "internalType": "uint256",
          "name": "projectId",
          "type": "uint256"
        },
        {
          "internalType": "address",
          "name": "projectOwner",
          "type": "address"
        },
        {
          "internalType": "uint256",
          "name": "fund",
          "type": "uint256"
        },
        {
          "internalType": "string",
          "name": "title",
          "type": "string"
        },
        {
          "internalType": "string",
          "name": "pitch",
          "type": "string"
        },
        {
          "internalType": "string",
          "name": "githubLink",
          "type": "string"
        },
        {
          "internalType": "string",
          "name": "category",
          "type": "string"
        },
        {
          "internalType": "uint256",
          "name": "contributors",
          "type": "uint256"
        },
        {
          "internalType": "uint256",
          "name": "matchingContributors",
          "type": "uint256"
        },
        {
          "internalType": "uint256",
          "name": "rootSum",
          "type": "uint256"
        },
        {
          "internalType": "uint256",
          "name": "matchingSum",
          "type": "uint256"
        },
        {
          "internalType": "uint256",
          "name": "matchingShare",
          "type": "uint256"
        },
        {
          "internalType": "uint256",
          "name": "lifetimeMatching",
          "type": "uint256"
        },
        {
          "internalType": "uint256",
          "name": "unpaid",
          "type": "uint256"
        }
      ],
      "stateMutability": "view",
      "type": "function"
    },
    {
      "inputs": [
        {
          "internalType": "uint256",
          "name": "",
          "type": "uint256"
        }
      ],
      "name": "projects",
      "outputs": [
        {
          "internalType": "uint256",
          "name": "projectId",
          "type": "uint256"
        },
        {
          "internalType": "address",
          "name": "projectOwner",
          "type": "address"
        },
        {
          "internalType": "uint256",
          "name": "fund",
          "type": "uint256"
        },
        {
          "internalType": "string",
          "name": "title",
          "type": "string"
        },
        {
          "internalType": "string",
          "name": "pitch",
          "type": "string"
        },
        {
          "internalType": "string",
          "name": "githubLink",
          "type": "string"
        },
        {
          "internalType": "string",
          "name": "category",
          "type": "string"
        },
        {
          "internalType": "uint256",
          "name": "contributors",
          "type": "uint256"
        },
        {
          "internalType": "uint256",
          "name": "matchingContributors",
          "type": "uint256"
        },
        {
          "internalType": "uint256",
          "name": "rootSum",
          "type": "uint256"
        },
        {
          "internalType": "uint256",
          "name": "matchingSum",
          "type": "uint256"
        },
        {
          "internalType": "uint256",
          "name": "matchingShare",
          "type": "uint256"
        },
        {
          "internalType": "uint256",
          "name": "lifetimeMatching",
          "type": "uint256"
        },
        {
          "internalType": "uint256",
          "name": "unpaid",
          "type": "uint256"
        }
      ],
      "stateMutability": "view",
      "type": "function"
    },
    {
      "inputs": [
        {
          "internalType": "string",
          "name": "_title",
          "type": "string"
        },
        {
          "internalType": "string",
          "name": "_pitch",
          "type": "string"
        },
        {
          "internalType": "string",
          "name": "_githubLink",
          "type": "string"
        },
        {
          "internalType": "string",
          "name": "_category",
          "type": "string"
        }
      ],
      "name": "listProject",
      "outputs": [],
      "stateMutability": "nonpayable",
      "type": "function"
    },
    {
      "inputs": [],
      "name": "getAllProjects",
      "outputs": [
        {
          "components": [
            {
              "internalType": "uint256",
              "name": "projectId",
              "type": "uint256"
            },
            {
              "internalType": "address",
              "name": "projectOwner",
              "type": "address"
            },
            {
              "internalType": "uint256",
              "name": "fund",
              "type": "uint256"
            },
            {
              "internalType": "string",
              "name": "title",
              "type": "string"
            },
            {
              "internalType": "string",
              "name": "pitch",
              "type": "string"
            },
            {
              "internalType": "string",
              "name": "githubLink",
              "type": "string"
            },
            {
              "internalType": "string",
              "name": "category",
              "type": "string"
            },
            {
              "internalType": "uint256",
              "name": "contributors",
              "type": "uint256"
            },
            {
              "internalType": "uint256",
              "name": "matchingContributors",
              "type": "uint256"
            },
            {
              "internalType": "uint256",
              "name": "rootSum",
              "type": "uint256"
            },
            {
              "internalType": "uint256",
              "name": "matchingSum",
              "type": "uint256"
            },
            {
              "internalType": "uint256",
              "name": "matchingShare",
              "type": "uint256"
            },
            {
              "internalType": "uint256",
              "name": "lifetimeMatching",
              "type": "uint256"
            },
            {
              "internalType": "uint256",
              "name": "unpaid",
              "type": "uint256"
            }
          ],
          "internalType": "struct GetProject.Project[]",
          "name": "",
          "type": "tuple[]"
        }
      ],
      "stateMutability": "view",
      "type": "function"
    }
  ],
  "bytecode": "0x6080604052600080546001600160a01b0319163317905534801561002257600080fd5b50610d8e806100326000396000f3fe608060405234801561001057600080fd5b50600436106100575760003560e01c80630f9289791461005c578063107046bd1461007157806351b16c77146100a757806380d03829146100ba5780638da5cb5b146100cf575b600080fd5b61006f61006a366004610a27565b6100fa565b005b61008461007f366004610ad4565b6102f3565b60405161009e9e9d9c9b9a99989796959493929190610b3a565b60405180910390f35b6100846100b5366004610ad4565b610599565b6100c26105d2565b60405161009e9190610be7565b6000546100e2906001600160a01b031681565b6040516001600160a01b03909116815260200161009e565b60018054604080516101c0810182528281523360208083019182526000938301848152606084018b8152608085018b905260a085018a905260c0850189905260e08501869052610100850186905261012085018690526101408501869052610160850186905261018085018690526101a0850186905286880188559690945282517fb10e2d527612073b26eecdfd717e6a320cf44b4afac2b0732d9fcbe2b7fa0cf6600e870290810191825592517fb10e2d527612073b26eecdfd717e6a320cf44b4afac2b0732d9fcbe2b7fa0cf7840180546001600160a01b0319166001600160a01b0390921691909117905593517fb10e2d527612073b26eecdfd717e6a320cf44b4afac2b0732d9fcbe2b7fa0cf88301559451805194959294610249937fb10e2d527612073b26eecdfd717e6a320cf44b4afac2b0732d9fcbe2b7fa0cf99093019291909101906108eb565b50608082015180516102659160048401916020909101906108eb565b5060a082015180516102819160058401916020909101906108eb565b5060c0820151805161029d9160068401916020909101906108eb565b5060e082015181600701556101008201518160080155610120820151816009015561014082015181600a015561016082015181600b015561018082015181600c01556101a082015181600d015550505050505050565b6001818154811061030357600080fd5b60009182526020909120600e909102018054600182015460028301546003840180549395506001600160a01b0390921693909290919061034290610d1d565b80601f016020809104026020016040519081016040528092919081815260200182805461036e90610d1d565b80156103bb5780601f10610390576101008083540402835291602001916103bb565b820191906000526020600020905b81548152906001019060200180831161039e57829003601f168201915b5050505050908060040180546103d090610d1d565b80601f01602080910402602001604051908101604052809291908181526020018280546103fc90610d1d565b80156104495780601f1061041e57610100808354040283529160200191610449565b820191906000526020600020905b81548152906001019060200180831161042c57829003601f168201915b50505050509080600501805461045e90610d1d565b80601f016020809104026020016040519081016040528092919081815260200182805461048a90610d1d565b80156104d75780601f106104ac576101008083540402835291602001916104d7565b820191906000526020600020905b8154815290600101906020018083116104ba57829003601f168201915b5050505050908060060180546104ec90610d1d565b80601f016020809104026020016040519081016040528092919081815260200182805461051890610d1d565b80156105655780601f1061053a57610100808354040283529160200191610565565b820191906000526020600020905b81548152906001019060200180831161054857829003601f168201915b50505050509080600701549080600801549080600901549080600a01549080600b01549080600c01549080600d015490508e565b6002602081905260009182526040909120805460018201549282015460038301805492946001600160a01b031693919261034290610d1d565b60606001805480602002602001604051908101604052809291908181526020016000905b828210156108e2576000848152602090819020604080516101c081018252600e86029092018054835260018101546001600160a01b03169383019390935260028301549082015260038201805491929160608401919061065590610d1d565b80601f016020809104026020016040519081016040528092919081815260200182805461068190610d1d565b80156106ce5780601f106106a3576101008083540402835291602001916106ce565b820191906000526020600020905b8154815290600101906020018083116106b157829003601f168201915b505050505081526020016004820180546106e790610d1d565b80601f016020809104026020016040519081016040528092919081815260200182805461071390610d1d565b80156107605780601f1061073557610100808354040283529160200191610760565b820191906000526020600020905b81548152906001019060200180831161074357829003601f168201915b5050505050815260200160058201805461077990610d1d565b80601f01602080910402602001604051908101604052809291908181526020018280546107a590610d1d565b80156107f25780601f106107c7576101008083540402835291602001916107f2565b820191906000526020600020905b8154815290600101906020018083116107d557829003601f168201915b5050505050815260200160068201805461080b90610d1d565b80601f016020809104026020016040519081016040528092919081815260200182805461083790610d1d565b80156108845780601f1061085957610100808354040283529160200191610884565b820191906000526020600020905b81548152906001019060200180831161086757829003601f168201915b50505050508152602001600782015481526020016008820154815260200160098201548152602001600a8201548152602001600b8201548152602001600c8201548152602001600d82015481525050815260200190600101906105f6565b50505050905090565b8280546108f790610d1d565b90600052602060002090601f016020900481019282610919576000855561095f565b82601f1061093257805160ff191683800117855561095f565b8280016001018555821561095f579182015b8281111561095f578251825591602001919060010190610944565b5061096b92915061096f565b5090565b5b8082111561096b5760008155600101610970565b634e487b7160e01b600052604160045260246000fd5b600082601f8301126109ab57600080fd5b813567ffffffffffffffff808211156109c6576109c6610984565b604051601f8301601f19908116603f011681019082821181831017156109ee576109ee610984565b81604052838152866020858801011115610a0757600080fd5b836020870160208301376000602085830101528094505050505092915050565b60008060008060808587031215610a3d57600080fd5b843567ffffffffffffffff80821115610a5557600080fd5b610a618883890161099a565b95506020870135915080821115610a7757600080fd5b610a838883890161099a565b94506040870135915080821115610a9957600080fd5b610aa58883890161099a565b93506060870135915080821115610abb57600080fd5b50610ac88782880161099a565b91505092959194509250565b600060208284031215610ae657600080fd5b5035919050565b6000815180845260005b81811015610b1357602081850181015186830182015201610af7565b81811115610b25576000602083870101525b50601f01601f19169290920160200192915050565b8e81526001600160a01b038e1660208201528c60408201526101c060608201526000610b6a6101c083018e610aed565b8281036080840152610b7c818e610aed565b905082810360a0840152610b90818d610aed565b905082810360c0840152610ba4818c610aed565b60e084019a909a5250506101008101969096526101208601949094526101408501929092526101608401526101808301526101a090910152979650505050505050565b60006020808301818452808551808352604092508286019150828160051b87010184880160005b83811015610d0f57888303603f19018552815180518452878101516001600160a01b038116898601526101c0905087820151888601526060808301518282880152610c5b83880182610aed565b9250505060808083015186830382880152610c768382610aed565b9250505060a08083015186830382880152610c918382610aed565b9250505060c08083015186830382880152610cac8382610aed565b60e08581015190890152610100808601519089015261012080860151908901526101408086015190890152610160808601519089015261018080860151908901526101a09485015194909701939093525050509386019390860190600101610c0e565b509098975050505050505050565b600181811c90821680610d3157607f821691505b60208210811415610d5257634e487b7160e01b600052602260045260246000fd5b5091905056fea264697066735822122090a6a5a4bf0476aa93d46b28dbce27665cc5b94f09a7df82b35de8e58dbcbcd064736f6c63430008090033",
  "immutableReferences": {},
  "source": "// SPDX-License-Identifier: MIT\npragma solidity >=0.4.22 <0.9.0;\npragma experimental ABIEncoderV2;\n\ncontract GetProject {\n    address public owner = msg.sender;\n\n    struct Project {\n        uint256 projectId;\n        address projectOwner;\n        uint256 fund;\n        string title;\n        string pitch;\n        string githubLink;\n        string category;\n        uint256 contributors;\n        uint256 matchingContributors;\n        uint256 rootSum;\n        uint256 matchingSum;\n        uint256 matchingShare;\n        uint256 lifetimeMatching;\n        uint256 unpaid;\n    }\n\n    Project[] public projects;\n    mapping(uint256 => Project) public projectIdToProject;\n\n    function listProject(\n        string memory _title,\n        string memory _pitch,\n        string memory _githubLink,\n        string memory _category\n    ) public {\n        uint256 _projectId = projects.length;\n        projects.push(\n            Project(\n                _projectId,\n                msg.sender,\n                0,\n                _title,\n                _pitch,\n                _githubLink,\n                _category,\n                0,\n                0,\n                0,\n                0,\n                0,\n                0,\n                0\n            )\n        );\n    }\n\n    function getAllProjects() public view returns (Project[] memory) {\n        return projects;\n    }\n}\n",
  "sourcePath": "/Users/apple/Desktop/bhvgvhvghv/contracts/GetProject.sol",
  "compiler": {
    "name": "solc",
    "version": "0.8.9+commit.e5eed63a.Emscripten.clang"
  },
  "schemaVersion": "3.4.7",
  "updatedAt": "2022-05-02T04:40:35.782Z",
  "devdoc": {
    "kind": "dev",
    "methods": {},
    "version": 1
  },
  "userdoc": {
    "kind": "user",
    "methods": {},
    "version": 1
  }
}